{
  "contractName": "MyContract",
  "abi": [
    {
      "inputs": [
        {
          "internalType": "string",
          "name": "_name",
          "type": "string"
        }
      ],
      "name": "setName",
      "outputs": [],
      "stateMutability": "nonpayable",
      "type": "function"
    },
    {
      "inputs": [],
      "name": "getName",
      "outputs": [
        {
          "internalType": "string",
          "name": "",
          "type": "string"
        }
      ],
      "stateMutability": "view",
      "type": "function",
      "constant": true
    }
  ],
  "bytecode": "0x608060405234801561001057600080fd5b5061045e806100206000396000f3fe608060405234801561001057600080fd5b50600436106100365760003560e01c806317d7de7c1461003b578063c47f002714610059575b600080fd5b610043610075565b60405161005091906102a6565b60405180910390f35b610073600480360381019061006e919061022c565b610107565b005b60606000805461008490610387565b80601f01602080910402602001604051908101604052809291908181526020018280546100b090610387565b80156100fd5780601f106100d2576101008083540402835291602001916100fd565b820191906000526020600020905b8154815290600101906020018083116100e057829003601f168201915b5050505050905090565b806000908051906020019061011d929190610121565b5050565b82805461012d90610387565b90600052602060002090601f01602090048101928261014f5760008555610196565b82601f1061016857805160ff1916838001178555610196565b82800160010185558215610196579182015b8281111561019557825182559160200191906001019061017a565b5b5090506101a391906101a7565b5090565b5b808211156101c05760008160009055506001016101a8565b5090565b60006101d76101d2846102f9565b6102c8565b9050828152602081018484840111156101ef57600080fd5b6101fa848285610345565b509392505050565b600082601f83011261021357600080fd5b81356102238482602086016101c4565b91505092915050565b60006020828403121561023e57600080fd5b600082013567ffffffffffffffff81111561025857600080fd5b61026484828501610202565b91505092915050565b600061027882610329565b6102828185610334565b9350610292818560208601610354565b61029b81610417565b840191505092915050565b600060208201905081810360008301526102c0818461026d565b905092915050565b6000604051905081810181811067ffffffffffffffff821117156102ef576102ee6103e8565b5b8060405250919050565b600067ffffffffffffffff821115610314576103136103e8565b5b601f19601f8301169050602081019050919050565b600081519050919050565b600082825260208201905092915050565b82818337600083830152505050565b60005b83811015610372578082015181840152602081019050610357565b83811115610381576000848401525b50505050565b6000600282049050600182168061039f57607f821691505b602082108114156103b3576103b26103b9565b5b50919050565b7f4e487b7100000000000000000000000000000000000000000000000000000000600052602260045260246000fd5b7f4e487b7100000000000000000000000000000000000000000000000000000000600052604160045260246000fd5b6000601f19601f830116905091905056fea2646970667358221220c27a1780f169f0498320eab8f9f4e12a02b4e5061855eed4e3870deac47e45ee64736f6c63430008000033",
  "immutableReferences": {},
  "source": "pragma solidity ^0.8.0;\r\n\r\ncontract MyContract {\r\n\r\n// function functionName() visibilityKeyword modifierKeyword returns(dataType)\r\n\r\n// private, internal, external, public\r\n\r\n// view, pure\r\n\r\nstring name;\r\n\r\nfunction setName(string memory _name) external {\r\n    name = _name;\r\n}\r\n\r\nfunction getName() external view returns(string memory){\r\n    return name;\r\n}\r\n\r\n}",
  "sourcePath": "C:/Users/feder/Desktop/Solidity Tutorial/contracts/MyContract.sol",
  "compiler": {
    "name": "solc",
    "version": "0.8.0+commit.c7dfd78e.Emscripten.clang"
  },
  "schemaVersion": "3.4.1",
  "updatedAt": "2021-07-09T18:46:48.411Z",
  "networkType": "ethereum",
  "devdoc": {
    "kind": "dev",
    "methods": {},
    "version": 1
  },
  "userdoc": {
    "kind": "user",
    "methods": {},
    "version": 1
  }
}