{
  "contractName": "MyContract",
  "abi": [
    {
      "inputs": [],
      "name": "output",
      "outputs": [
        {
          "internalType": "string",
          "name": "",
          "type": "string"
        }
      ],
      "stateMutability": "view",
      "type": "function",
      "constant": true
    },
    {
      "inputs": [],
      "name": "sum",
      "outputs": [
        {
          "internalType": "uint256",
          "name": "",
          "type": "uint256"
        }
      ],
      "stateMutability": "view",
      "type": "function",
      "constant": true
    },
    {
      "inputs": [
        {
          "internalType": "string",
          "name": "value",
          "type": "string"
        }
      ],
      "name": "ifStatement",
      "outputs": [
        {
          "internalType": "string",
          "name": "",
          "type": "string"
        }
      ],
      "stateMutability": "nonpayable",
      "type": "function"
    },
    {
      "inputs": [
        {
          "internalType": "uint256",
          "name": "end",
          "type": "uint256"
        }
      ],
      "name": "forLoop",
      "outputs": [
        {
          "internalType": "uint256",
          "name": "",
          "type": "uint256"
        }
      ],
      "stateMutability": "nonpayable",
      "type": "function"
    },
    {
      "inputs": [
        {
          "internalType": "uint256",
          "name": "end",
          "type": "uint256"
        }
      ],
      "name": "whileLoop",
      "outputs": [
        {
          "internalType": "string",
          "name": "",
          "type": "string"
        }
      ],
      "stateMutability": "pure",
      "type": "function",
      "constant": true
    }
  ],
  "bytecode": "0x60806040526040518060400160405280600581526020017f70697a7a610000000000000000000000000000000000000000000000000000008152506001908051906020019061004f929190610062565b5034801561005c57600080fd5b50610166565b82805461006e90610105565b90600052602060002090601f01602090048101928261009057600085556100d7565b82601f106100a957805160ff19168380011785556100d7565b828001600101855582156100d7579182015b828111156100d65782518255916020019190600101906100bb565b5b5090506100e491906100e8565b5090565b5b808211156101015760008160009055506001016100e9565b5090565b6000600282049050600182168061011d57607f821691505b6020821081141561013157610130610137565b5b50919050565b7f4e487b7100000000000000000000000000000000000000000000000000000000600052602260045260246000fd5b610977806101756000396000f3fe608060405234801561001057600080fd5b50600436106100575760003560e01c8063456901e41461005c5780635a5e80e71461008c578063853255cc146100bc578063a4ef4c80146100da578063f20eaeb81461010a575b600080fd5b61007660048036038101906100719190610546565b610128565b60405161008391906106b7565b60405180910390f35b6100a660048036038101906100a19190610546565b61016b565b6040516100b39190610695565b60405180910390f35b6100c46101ca565b6040516100d191906106b7565b60405180910390f35b6100f460048036038101906100ef9190610505565b6101d0565b6040516101019190610695565b60405180910390f35b610112610357565b60405161011f9190610695565b60405180910390f35b600080600090505b82811015610160576001600254610147919061076f565b600281905550808061015890610843565b915050610130565b506002549050919050565b606060005b8281101561018c57600181610185919061076f565b9050610170565b6040518060400160405280600481526020017f446f6e6500000000000000000000000000000000000000000000000000000000815250915050919050565b60025481565b606060016040516020016101e4919061067e565b604051602081830303815290604052805190602001208260405160200161020b9190610667565b604051602081830303815290604052805190602001201415610278576040518060400160405280600d81526020017f62756f6e20617070657469746f00000000000000000000000000000000000000815250600090805190602001906102729291906103e5565b506102c5565b6040518060400160405280600c81526020017f73656920612064696574613f0000000000000000000000000000000000000000815250600090805190602001906102c39291906103e5565b505b600080546102d290610811565b80601f01602080910402602001604051908101604052809291908181526020018280546102fe90610811565b801561034b5780601f106103205761010080835404028352916020019161034b565b820191906000526020600020905b81548152906001019060200180831161032e57829003601f168201915b50505050509050919050565b6000805461036490610811565b80601f016020809104026020016040519081016040528092919081815260200182805461039090610811565b80156103dd5780601f106103b2576101008083540402835291602001916103dd565b820191906000526020600020905b8154815290600101906020018083116103c057829003601f168201915b505050505081565b8280546103f190610811565b90600052602060002090601f016020900481019282610413576000855561045a565b82601f1061042c57805160ff191683800117855561045a565b8280016001018555821561045a579182015b8281111561045957825182559160200191906001019061043e565b5b509050610467919061046b565b5090565b5b8082111561048457600081600090555060010161046c565b5090565b600061049b61049684610703565b6106d2565b9050828152602081018484840111156104b357600080fd5b6104be8482856107cf565b509392505050565b600082601f8301126104d757600080fd5b81356104e7848260208601610488565b91505092915050565b6000813590506104ff8161092a565b92915050565b60006020828403121561051757600080fd5b600082013567ffffffffffffffff81111561053157600080fd5b61053d848285016104c6565b91505092915050565b60006020828403121561055857600080fd5b6000610566848285016104f0565b91505092915050565b600061057a82610748565b6105848185610753565b93506105948185602086016107de565b61059d81610919565b840191505092915050565b60006105b382610748565b6105bd8185610764565b93506105cd8185602086016107de565b80840191505092915050565b600081546105e681610811565b6105f08186610764565b9450600182166000811461060b576001811461061c5761064f565b60ff1983168652818601935061064f565b61062585610733565b60005b8381101561064757815481890152600182019150602081019050610628565b838801955050505b50505092915050565b610661816107c5565b82525050565b600061067382846105a8565b915081905092915050565b600061068a82846105d9565b915081905092915050565b600060208201905081810360008301526106af818461056f565b905092915050565b60006020820190506106cc6000830184610658565b92915050565b6000604051905081810181811067ffffffffffffffff821117156106f9576106f86108ea565b5b8060405250919050565b600067ffffffffffffffff82111561071e5761071d6108ea565b5b601f19601f8301169050602081019050919050565b60008190508160005260206000209050919050565b600081519050919050565b600082825260208201905092915050565b600081905092915050565b600061077a826107c5565b9150610785836107c5565b9250827fffffffffffffffffffffffffffffffffffffffffffffffffffffffffffffffff038211156107ba576107b961088c565b5b828201905092915050565b6000819050919050565b82818337600083830152505050565b60005b838110156107fc5780820151818401526020810190506107e1565b8381111561080b576000848401525b50505050565b6000600282049050600182168061082957607f821691505b6020821081141561083d5761083c6108bb565b5b50919050565b600061084e826107c5565b91507fffffffffffffffffffffffffffffffffffffffffffffffffffffffffffffffff8214156108815761088061088c565b5b600182019050919050565b7f4e487b7100000000000000000000000000000000000000000000000000000000600052601160045260246000fd5b7f4e487b7100000000000000000000000000000000000000000000000000000000600052602260045260246000fd5b7f4e487b7100000000000000000000000000000000000000000000000000000000600052604160045260246000fd5b6000601f19601f8301169050919050565b610933816107c5565b811461093e57600080fd5b5056fea2646970667358221220bbcfc44c01dd6c42092a1b6c727d856d041c46963e0993d173cec90c6736103a64736f6c63430008000033",
  "immutableReferences": {},
  "source": "pragma solidity ^0.8.0;\r\n\r\ncontract MyContract {\r\n\r\n    string public output;\r\n    string valueToCheck = \"pizza\";\r\n\r\n    function ifStatement(string memory value) external returns(string memory){\r\n        if(keccak256(abi.encodePacked(value))==keccak256(abi.encodePacked(valueToCheck))){\r\n            output = \"buon appetito\";\r\n        }\r\n        else{\r\n            output = \"sei a dieta?\";\r\n        }\r\n\r\n        return output;\r\n    }\r\n\r\n    uint public sum;\r\n    function forLoop(uint end) external returns(uint) {\r\n        for(uint i = 0; i<end; i++){\r\n            sum = sum+1;\r\n        }\r\n        return sum;\r\n    }\r\n\r\n     function whileLoop(uint end) external pure returns(string memory){\r\n         uint j = 0;\r\n         while(j<end){\r\n             j = j + 1;\r\n         }\r\n         return \"Done\";\r\n     }\r\n\r\n}",
  "sourcePath": "C:/Users/feder/Desktop/Solidity Tutorial/contracts/MyContract.sol",
  "compiler": {
    "name": "solc",
    "version": "0.8.0+commit.c7dfd78e.Emscripten.clang"
  },
  "schemaVersion": "3.4.1",
  "updatedAt": "2021-07-22T13:26:51.015Z",
  "networkType": "ethereum",
  "devdoc": {
    "kind": "dev",
    "methods": {},
    "version": 1
  },
  "userdoc": {
    "kind": "user",
    "methods": {},
    "version": 1
  }
}