{
  "contractName": "MyContract",
  "abi": [
    {
      "inputs": [],
      "name": "light",
      "outputs": [
        {
          "internalType": "enum MyContract.STATUS",
          "name": "",
          "type": "uint8"
        }
      ],
      "stateMutability": "view",
      "type": "function",
      "constant": true
    },
    {
      "inputs": [
        {
          "internalType": "string",
          "name": "_state",
          "type": "string"
        }
      ],
      "name": "turnLight",
      "outputs": [],
      "stateMutability": "nonpayable",
      "type": "function"
    },
    {
      "inputs": [],
      "name": "lightStatus",
      "outputs": [
        {
          "internalType": "enum MyContract.STATUS",
          "name": "",
          "type": "uint8"
        }
      ],
      "stateMutability": "view",
      "type": "function",
      "constant": true
    }
  ],
  "bytecode": "0x608060405234801561001057600080fd5b506104b6806100206000396000f3fe608060405234801561001057600080fd5b50600436106100415760003560e01c8063080cbdf21461004657806364dbe78c14610062578063dd6fde7014610080575b600080fd5b610060600480360381019061005b9190610228565b61009e565b005b61006a610199565b6040516100779190610315565b60405180910390f35b6100886101aa565b6040516100959190610315565b60405180910390f35b6040516020016100ad90610300565b60405160208183030381529060405280519060200120816040516020016100d491906102e9565b6040516020818303038152906040528051906020012014156101455760008060006101000a81548160ff0219169083600181111561013b577f4e487b7100000000000000000000000000000000000000000000000000000000600052602160045260246000fd5b0217905550610196565b60016000806101000a81548160ff02191690836001811115610190577f4e487b7100000000000000000000000000000000000000000000000000000000600052602160045260246000fd5b02179055505b50565b60008054906101000a900460ff1681565b60008060009054906101000a900460ff16905090565b60006101d36101ce84610361565b610330565b9050828152602081018484840111156101eb57600080fd5b6101f68482856103cc565b509392505050565b600082601f83011261020f57600080fd5b813561021f8482602086016101c0565b91505092915050565b60006020828403121561023a57600080fd5b600082013567ffffffffffffffff81111561025457600080fd5b610260848285016101fe565b91505092915050565b610272816103ba565b82525050565b600061028382610391565b61028d818561039c565b935061029d8185602086016103db565b80840191505092915050565b60006102b660028361039c565b91507f6f6e0000000000000000000000000000000000000000000000000000000000006000830152600282019050919050565b60006102f58284610278565b915081905092915050565b600061030b826102a9565b9150819050919050565b600060208201905061032a6000830184610269565b92915050565b6000604051905081810181811067ffffffffffffffff821117156103575761035661043d565b5b8060405250919050565b600067ffffffffffffffff82111561037c5761037b61043d565b5b601f19601f8301169050602081019050919050565b600081519050919050565b600081905092915050565b60008190506103b58261046c565b919050565b60006103c5826103a7565b9050919050565b82818337600083830152505050565b60005b838110156103f95780820151818401526020810190506103de565b83811115610408576000848401525b50505050565b7f4e487b7100000000000000000000000000000000000000000000000000000000600052602160045260246000fd5b7f4e487b7100000000000000000000000000000000000000000000000000000000600052604160045260246000fd5b6002811061047d5761047c61040e565b5b5056fea264697066735822122090c2984f17c34d26686ab3e510ae50eb990e8821edc8b75a54d9b2f250a4b52c64736f6c63430008000033",
  "immutableReferences": {},
  "source": "pragma solidity ^0.8.0;\r\n\r\ncontract MyContract {\r\n\r\n    enum STATUS {\r\n        ON,\r\n        OFF\r\n    }\r\n    STATUS public light;\r\n\r\n    function turnLight(string memory _state) external {\r\n\r\n        if(keccak256(abi.encodePacked(_state)) == keccak256(abi.encodePacked('on'))){\r\n            light = STATUS.ON;\r\n        }\r\n        else{\r\n            light = STATUS.OFF;\r\n        }\r\n\r\n    }\r\n\r\n    function lightStatus() external view returns(STATUS){\r\n        return light;\r\n    }\r\n\r\n}",
  "sourcePath": "C:/Users/feder/Desktop/Solidity Tutorial/contracts/MyContract.sol",
  "compiler": {
    "name": "solc",
    "version": "0.8.0+commit.c7dfd78e.Emscripten.clang"
  },
  "schemaVersion": "3.4.1",
  "updatedAt": "2021-10-05T16:46:37.003Z",
  "networkType": "ethereum",
  "devdoc": {
    "kind": "dev",
    "methods": {},
    "version": 1
  },
  "userdoc": {
    "kind": "user",
    "methods": {},
    "version": 1
  }
}