{
  "contractName": "MyContract",
  "abi": [
    {
      "inputs": [
        {
          "internalType": "uint256",
          "name": "",
          "type": "uint256"
        }
      ],
      "name": "myArray1",
      "outputs": [
        {
          "internalType": "uint256",
          "name": "",
          "type": "uint256"
        }
      ],
      "stateMutability": "view",
      "type": "function",
      "constant": true
    },
    {
      "inputs": [
        {
          "internalType": "uint256",
          "name": "end",
          "type": "uint256"
        }
      ],
      "name": "myFunc1",
      "outputs": [
        {
          "internalType": "uint256[]",
          "name": "",
          "type": "uint256[]"
        }
      ],
      "stateMutability": "nonpayable",
      "type": "function"
    },
    {
      "inputs": [],
      "name": "myFunc2",
      "outputs": [
        {
          "internalType": "uint256[]",
          "name": "",
          "type": "uint256[]"
        }
      ],
      "stateMutability": "pure",
      "type": "function",
      "constant": true
    }
  ],
  "bytecode": "0x608060405234801561001057600080fd5b506104f6806100206000396000f3fe608060405234801561001057600080fd5b50600436106100415760003560e01c8063037229d5146100465780634a5ce6d51461007657806391a035d114610094575b600080fd5b610060600480360381019061005b919061029a565b6100c4565b60405161006d9190610379565b60405180910390f35b61007e6100e8565b60405161008b9190610357565b60405180910390f35b6100ae60048036038101906100a9919061029a565b6101d7565b6040516100bb9190610357565b60405180910390f35b600081815481106100d457600080fd5b906000526020600020016000915090505481565b60606000600a67ffffffffffffffff81111561012d577f4e487b7100000000000000000000000000000000000000000000000000000000600052604160045260246000fd5b60405190808252806020026020018201604052801561015b5781602001602082028036833780820191505090505b50905060005b81518110156101cf5760028161017791906103cd565b8282815181106101b0577f4e487b7100000000000000000000000000000000000000000000000000000000600052603260045260246000fd5b60200260200101818152505080806101c790610431565b915050610161565b508091505090565b606060005b8281101561022c5760006002826101f391906103cd565b9080600181540180825580915050600190039060005260206000200160009091909190915055808061022490610431565b9150506101dc565b50600080548060200260200160405190810160405280929190818152602001828054801561027957602002820191906000526020600020905b815481526020019060010190808311610265575b50505050509050919050565b600081359050610294816104a9565b92915050565b6000602082840312156102ac57600080fd5b60006102ba84828501610285565b91505092915050565b60006102cf8383610339565b60208301905092915050565b60006102e6826103a4565b6102f081856103bc565b93506102fb83610394565b8060005b8381101561032c57815161031388826102c3565b975061031e836103af565b9250506001810190506102ff565b5085935050505092915050565b61034281610427565b82525050565b61035181610427565b82525050565b6000602082019050818103600083015261037181846102db565b905092915050565b600060208201905061038e6000830184610348565b92915050565b6000819050602082019050919050565b600081519050919050565b6000602082019050919050565b600082825260208201905092915050565b60006103d882610427565b91506103e383610427565b9250817fffffffffffffffffffffffffffffffffffffffffffffffffffffffffffffffff048311821515161561041c5761041b61047a565b5b828202905092915050565b6000819050919050565b600061043c82610427565b91507fffffffffffffffffffffffffffffffffffffffffffffffffffffffffffffffff82141561046f5761046e61047a565b5b600182019050919050565b7f4e487b7100000000000000000000000000000000000000000000000000000000600052601160045260246000fd5b6104b281610427565b81146104bd57600080fd5b5056fea26469706673582212204f0699636dfe9a12d953bf7b6f2bdf032f4b6b5c79f23ae8445216d665160bd664736f6c63430008000033",
  "immutableReferences": {},
  "source": "pragma solidity ^0.8.0;\r\n\r\ncontract MyContract {\r\n\r\n    // storage\r\n    uint[] public myArray1;\r\n\r\n    function myFunc1(uint end) external returns(uint[] memory){\r\n        for(uint i=0; i<end; i++){\r\n            myArray1.push(i*2);\r\n        }\r\n\r\n        return myArray1;\r\n    }\r\n\r\n    // memory\r\n    function myFunc2() external pure returns(uint[] memory){\r\n        uint[] memory myArray2 = new uint[](10);\r\n\r\n        for(uint i=0; i<myArray2.length; i++){\r\n            myArray2[i] = i*2;\r\n        }\r\n\r\n        return myArray2;\r\n    }\r\n}",
  "sourcePath": "C:/Users/feder/Desktop/Solidity Tutorial/contracts/MyContract.sol",
  "compiler": {
    "name": "solc",
    "version": "0.8.0+commit.c7dfd78e.Emscripten.clang"
  },
  "schemaVersion": "3.4.1",
  "updatedAt": "2021-07-28T12:48:59.240Z",
  "networkType": "ethereum",
  "devdoc": {
    "kind": "dev",
    "methods": {},
    "version": 1
  },
  "userdoc": {
    "kind": "user",
    "methods": {},
    "version": 1
  }
}