{
  "contractName": "MyContract",
  "abi": [
    {
      "inputs": [],
      "name": "fundContract",
      "outputs": [],
      "stateMutability": "payable",
      "type": "function",
      "payable": true
    },
    {
      "inputs": [],
      "name": "getBalance",
      "outputs": [
        {
          "internalType": "uint256",
          "name": "",
          "type": "uint256"
        }
      ],
      "stateMutability": "view",
      "type": "function",
      "constant": true
    },
    {
      "inputs": [
        {
          "internalType": "address payable",
          "name": "_recipient",
          "type": "address"
        },
        {
          "internalType": "uint256",
          "name": "_amount",
          "type": "uint256"
        }
      ],
      "name": "transferAmount",
      "outputs": [],
      "stateMutability": "payable",
      "type": "function",
      "payable": true
    },
    {
      "inputs": [
        {
          "internalType": "address payable",
          "name": "_recipient",
          "type": "address"
        },
        {
          "internalType": "uint256",
          "name": "_amount",
          "type": "uint256"
        }
      ],
      "name": "callAmount",
      "outputs": [],
      "stateMutability": "payable",
      "type": "function",
      "payable": true
    }
  ],
  "bytecode": "0x608060405234801561001057600080fd5b50610395806100206000396000f3fe60806040526004361061003f5760003560e01c806303a451891461004457806312065fe014610060578063bd097e211461008b578063d7081e0314610095575b600080fd5b61005e600480360381019061005991906101e4565b6100b1565b005b34801561006c57600080fd5b50610075610165565b60405161008291906102be565b60405180910390f35b61009361016d565b005b6100af60048036038101906100aa91906101e4565b61016f565b005b6000808373ffffffffffffffffffffffffffffffffffffffff16836040516100d890610289565b60006040518083038185875af1925050503d8060008114610115576040519150601f19603f3d011682016040523d82523d6000602084013e61011a565b606091505b50915091508161015f576040517f08c379a00000000000000000000000000000000000000000000000000000000081526004016101569061029e565b60405180910390fd5b50505050565b600047905090565b565b8173ffffffffffffffffffffffffffffffffffffffff166108fc829081150290604051600060405180830381858888f193505050501580156101b5573d6000803e3d6000fd5b505050565b6000813590506101c981610331565b92915050565b6000813590506101de81610348565b92915050565b600080604083850312156101f757600080fd5b6000610205858286016101ba565b9250506020610216858286016101cf565b9150509250929050565b600061022d6013836102e4565b91507f5472616e73616374696f6e204661696c656421000000000000000000000000006000830152602082019050919050565b600061026d6000836102d9565b9150600082019050919050565b61028381610327565b82525050565b600061029482610260565b9150819050919050565b600060208201905081810360008301526102b781610220565b9050919050565b60006020820190506102d3600083018461027a565b92915050565b600081905092915050565b600082825260208201905092915050565b600061030082610307565b9050919050565b600073ffffffffffffffffffffffffffffffffffffffff82169050919050565b6000819050919050565b61033a816102f5565b811461034557600080fd5b50565b61035181610327565b811461035c57600080fd5b5056fea264697066735822122055bc39420d17e22473703afd31cd5f7efd180d8c0bce91e749bab8e39b1bf64664736f6c63430008000033",
  "immutableReferences": {},
  "source": "pragma solidity ^0.8.0;\r\n\r\ncontract MyContract {\r\n\r\n    function fundContract() external payable {\r\n\r\n    }\r\n\r\n    function getBalance() public view returns(uint){\r\n        return address(this).balance;\r\n    }\r\n\r\n    function transferAmount(address payable _recipient, uint _amount) external payable {\r\n        _recipient.transfer(_amount);\r\n    }\r\n\r\n    function callAmount(address payable _recipient, uint _amount) external payable {\r\n        (bool success,  bytes memory data) = _recipient.call{value:_amount}(\"\");\r\n        require(success, \"Transaction Failed!\");\r\n\r\n    }\r\n\r\n}\r\n",
  "sourcePath": "C:/Users/feder/Desktop/Solidity Tutorial/contracts/MyContract.sol",
  "compiler": {
    "name": "solc",
    "version": "0.8.0+commit.c7dfd78e.Emscripten.clang"
  },
  "schemaVersion": "3.4.1",
  "updatedAt": "2021-11-01T15:19:58.316Z",
  "networkType": "ethereum",
  "devdoc": {
    "kind": "dev",
    "methods": {},
    "version": 1
  },
  "userdoc": {
    "kind": "user",
    "methods": {},
    "version": 1
  }
}