{
  "contractName": "MyContract",
  "abi": [
    {
      "anonymous": false,
      "inputs": [
        {
          "indexed": false,
          "internalType": "uint256",
          "name": "date",
          "type": "uint256"
        },
        {
          "indexed": false,
          "internalType": "string",
          "name": "player",
          "type": "string"
        },
        {
          "indexed": false,
          "internalType": "string",
          "name": "team",
          "type": "string"
        }
      ],
      "name": "Score",
      "type": "event"
    },
    {
      "inputs": [
        {
          "internalType": "string",
          "name": "_player",
          "type": "string"
        },
        {
          "internalType": "string",
          "name": "_team",
          "type": "string"
        }
      ],
      "name": "goalScored",
      "outputs": [],
      "stateMutability": "nonpayable",
      "type": "function"
    }
  ],
  "bytecode": "0x608060405234801561001057600080fd5b5061032b806100206000396000f3fe608060405234801561001057600080fd5b506004361061002b5760003560e01c8063ec7a73ef14610030575b600080fd5b61004a600480360381019061004591906100f3565b61004c565b005b7fba74004ad4978cd3d2ecfe8c15e7c5f91bd7da14e199e9ae8638f20f378a729342838360405161007f939291906101a7565b60405180910390a15050565b600061009e6100998461021d565b6101ec565b9050828152602081018484840111156100b657600080fd5b6100c1848285610273565b509392505050565b600082601f8301126100da57600080fd5b81356100ea84826020860161008b565b91505092915050565b6000806040838503121561010657600080fd5b600083013567ffffffffffffffff81111561012057600080fd5b61012c858286016100c9565b925050602083013567ffffffffffffffff81111561014957600080fd5b610155858286016100c9565b9150509250929050565b600061016a8261024d565b6101748185610258565b9350610184818560208601610282565b61018d816102e4565b840191505092915050565b6101a181610269565b82525050565b60006060820190506101bc6000830186610198565b81810360208301526101ce818561015f565b905081810360408301526101e2818461015f565b9050949350505050565b6000604051905081810181811067ffffffffffffffff82111715610213576102126102b5565b5b8060405250919050565b600067ffffffffffffffff821115610238576102376102b5565b5b601f19601f8301169050602081019050919050565b600081519050919050565b600082825260208201905092915050565b6000819050919050565b82818337600083830152505050565b60005b838110156102a0578082015181840152602081019050610285565b838111156102af576000848401525b50505050565b7f4e487b7100000000000000000000000000000000000000000000000000000000600052604160045260246000fd5b6000601f19601f830116905091905056fea2646970667358221220202748cd62088a7bcc8cc34c3c1ed8f52d7149acc975458e351910407cb8d0e464736f6c63430008000033",
  "immutableReferences": {},
  "source": "pragma solidity ^0.8.0;\r\n\r\ncontract MyContract {\r\n    event Score(uint256 date, string player, string team);\r\n\r\n    function goalScored(string memory _player, string memory _team) external {\r\n        emit Score(block.timestamp, _player, _team);\r\n    }\r\n}\r\n",
  "sourcePath": "C:/Users/feder/Desktop/Solidity Tutorial/contracts/MyContract.sol",
  "compiler": {
    "name": "solc",
    "version": "0.8.0+commit.c7dfd78e.Emscripten.clang"
  },
  "schemaVersion": "3.4.1",
  "updatedAt": "2021-10-16T16:32:35.482Z",
  "networkType": "ethereum",
  "devdoc": {
    "kind": "dev",
    "methods": {},
    "version": 1
  },
  "userdoc": {
    "kind": "user",
    "methods": {},
    "version": 1
  }
}