{
  "contractName": "MyContract",
  "abi": [
    {
      "inputs": [],
      "name": "getSummary",
      "outputs": [
        {
          "internalType": "address",
          "name": "",
          "type": "address"
        },
        {
          "internalType": "uint256",
          "name": "",
          "type": "uint256"
        },
        {
          "internalType": "uint256",
          "name": "",
          "type": "uint256"
        }
      ],
      "stateMutability": "view",
      "type": "function",
      "constant": true
    }
  ],
  "bytecode": "0x608060405234801561001057600080fd5b50610117806100206000396000f3fe6080604052348015600f57600080fd5b506004361060285760003560e01c80634051ddac14602d575b600080fd5b60336049565b6040516040939291906076565b60405180910390f35b600080600033433a925092509250909192565b60638160a7565b82525050565b60708160d7565b82525050565b600060608201905060896000830186605c565b609460208301856069565b609f60408301846069565b949350505050565b600060b08260b7565b9050919050565b600073ffffffffffffffffffffffffffffffffffffffff82169050919050565b600081905091905056fea264697066735822122079690fc3bfc18516bc2344b6b2017d1a2ea9c95856d1342b3b600db729aaf37764736f6c63430008000033",
  "immutableReferences": {},
  "source": "pragma solidity ^0.8.0;\r\n\r\ncontract MyContract {\r\n\r\n    // transactions tx\r\n    // tx.gasprice (uint): gas price of the transaction\r\n    // tx.origin (address payable): sender of the transaction (full call chain)\r\n\r\n\r\n    // message msg\r\n    // msg.data (bytes calldata): complete calldata\r\n    // msg.sender (address payable): sender of the message (current call)\r\n    // msg.sig (bytes4): first four bytes of the calldata (i.e. function identifier)\r\n    // msg.value (uint): number of wei sent with the message\r\n\r\n\r\n    // blocks\r\n    // block.coinbase (address payable)`: current block miner’s address\r\n    // block.difficulty (uint): current block difficulty\r\n    // block.gaslimit (uint): current block gaslimit  \r\n    // block.number (uint): current block number\r\n    // block.timestamp (uint): current block timestamp as seconds since unix epoch\r\n\r\n    function getSummary() external view returns(address, uint, uint) {\r\n        return (msg.sender, block.number, tx.gasprice);\r\n    }\r\n\r\n\r\n}",
  "sourcePath": "C:/Users/feder/Desktop/Solidity Tutorial/contracts/MyContract.sol",
  "compiler": {
    "name": "solc",
    "version": "0.8.0+commit.c7dfd78e.Emscripten.clang"
  },
  "schemaVersion": "3.4.1",
  "updatedAt": "2021-07-16T14:06:58.761Z",
  "networkType": "ethereum",
  "devdoc": {
    "kind": "dev",
    "methods": {},
    "version": 1
  },
  "userdoc": {
    "kind": "user",
    "methods": {},
    "version": 1
  }
}